:020000040800F2
:1000000000000220FD060008F90600085DD7000880
:10001000F9060008F9060008F906000800000000CB
:10002000000000000000000000000000F9060008C9
:10003000F906000800000000F90600084DD7000886
:10004000F9060008F9060008F9060008F906000894
:10005000F9060008F9060008F9060008F906000884
:10006000F9060008F9060008F9060008B9D30008E7
:10007000C5D30008397A0008D1D30008DDD30008C1
:10008000F906000885F20008F9060008F9060008DC
:10009000F9060008F9060008F9060008F906000844
:1000A000F9060008F9060008F9060008F906000834
:1000B000F9060008F9060008F9060008A9F2000888
:1000C000F9060008B5F20008F9060008F90600086C
:1000D000F9060008F9060008F9060008F906000804
:1000E000F906000875B9000800000000F9060008CC
:1000F000F9060008F9060008F9060008F9060008E4
:10010000F9060008F9060008F9060008F9060008D3
:10011000F9060008F9060008F9060008F9060008C3
:10012000F9060008F9060008F9060008F9060008B3
:10013000F9060008F9060008F9060008F9060008A3
:1001400000000000000000000000000000000000AF
:10015000F9060008F9060008F9060008F906000883
:10016000C1F20008F9060008F9060008F9060008BF
:10017000F9060008F9060008F9060008F906000863
:10018000F9060008F9060008F9060008F906000853
:10019000F9060008F9060008F9060008F906000843
:1001A000F9060008F9060008F9060008F906000833
:1001B00001D10008F9060008F9060008F906000850
:1001C000F9060008F9060008F9060008F906000813
:1001D000F9060008F9060008F9060008F906000803
:1001E000F9060008F9060008F9060008F9060008F3
:1001F000F9060008F9060008F9060008F9060008E3
:10020000F9060008F9060008F9060008F9060008D2
:10021000F9060008F9060008F9060008F9060008C2
:10022000F9060008F9060008F906000800000000B9
:10023000F9060008F906000800000000F9060008A9
:10024000F9060008F9060008F9060008F906000892
:10025000F9060008F9060008F9060008F906000882
:10026000F9060008F9060008F9060008F906000872
:10027000F9060008F9060008F90600080000000069
:10028000F9060008F9060008F90600080000000059
:0802900000000000F90600085F
:1002A00010B5054C237833B9044B13B10448AFF3B0
:1002B00000800123237010BD3803002400000000DB
:1002C0005443010808B5034B1BB103490348AFF37E
:1002D000008008BD000000003C03002454430108D6
:1002E00001F0FF01102A2BDB10F0070F08D010F8E7
:1002F000013B013A8B422DD010F0070F42B3F6D1EB
:10030000F0B441EA012141EA014122F007047FF003
:1003100000070023F0E80256083C85EA010586EA5A
:10032000010685FA47F5A3FA87F586FA47F6A5FA96
:1003300087F68EB9EED1F0BC01F0FF0102F00702A2
:1003400032B110F8013B013A83EA010313B1F8D14D
:100350000020704701387047002D06BF354603382E
:10036000073815F0010F07D1013015F4807F02BF67
:10037000013015F4C03F0130F0BC0138704700BFB8
:1003800081F0004102E000BF83F0004330B54FEA46
:1003900041044FEA430594EA050F08BF90EA020FB3
:1003A0001FBF54EA000C55EA020C7FEA645C7FEA46
:1003B000655C00F0E2804FEA5454D4EB5555B8BF69
:1003C0006D420CDD2C4480EA020281EA030382EADA
:1003D000000083EA010180EA020281EA0303362D6C
:1003E00088BF30BD11F0004F4FEA01314FF4801C3F
:1003F0004CEA113102D0404261EB410113F0004F51
:100400004FEA03334CEA133302D0524263EB430307
:1004100094EA050F00F0A780A4F10104D5F1200EA5
:100420000DDB02FA0EFC22FA05F2801841F1000100
:1004300003FA0EF2801843FA05F359410EE0A5F1D4
:1004400020050EF1200E012A03FA0EFC28BF4CF005
:10045000020C43FA05F3C01851EBE37101F00045BB
:1004600007D54FF0000EDCF1000C7EEB00006EEBC8
:100470000101B1F5801F1BD3B1F5001F0CD3490852
:100480005FEA30004FEA3C0C04F101044FEA4452A9
:1004900012F5800F80F09A80BCF1004F08BF5FEA30
:1004A000500C50F1000041EB045141EA050130BD10
:1004B0005FEA4C0C404141EB0101013C28BFB1F522
:1004C000801FE9D291F0000F04BF01460020B1FA6D
:1004D00081F308BF2033A3F10B03B3F120020CDA40
:1004E0000C3208DD02F1140CC2F10C0201FA0CF01E
:1004F00021FA02F10CE002F11402D8BFC2F1200C83
:1005000001FA02F120FA0CFCDCBF41EA0C01904038
:10051000E41AA2BF01EB0451294330BD6FEA040481
:100520001F3C1CDA0C340EDC04F11404C4F120026C
:1005300020FA04F001FA02F340EA030021FA04F37E
:1005400045EA030130BDC4F10C04C4F1200220FAD5
:1005500002F001FA04F340EA0300294630BD21FA13
:1005600004F0294630BD94F0000F83F4801306BFD9
:1005700081F480110134013D4EE77FEA645C18BFCD
:100580007FEA655C29D094EA050F08BF90EA020F64
:1005900005D054EA000C04BF1946104630BD91EA5C
:1005A000030F1EBF0021002030BD5FEA545C05D15F
:1005B0004000494128BF41F0004130BD14F580049E
:1005C0003CBF01F5801130BD01F0004545F0FE4112
:1005D00041F470014FF0000030BD7FEA645C1ABF47
:1005E000194610467FEA655C1CBF0B46024650EA7E
:1005F000013406BF52EA033591EA030F41F40021AA
:1006000030BD00BF90F0000F04BF0021704730B52F
:100610004FF4806404F132044FF000054FF0000104
:1006200050E700BF90F0000F04BF0021704730B5C5
:100630004FF4806404F1320410F0004548BF40429A
:100640004FF000013EE700BF42004FEAE2014FEAEF
:1006500031014FEA02701FBF12F07F4393F07F4FCA
:1006600081F06051704732F07F4208BF704793F0CD
:100670007F4F04BF41F40021704730B54FF46074E0
:1006800001F0004521F000411CE700BF50EA0102E3
:1006900008BF704730B54FF000050AE050EA01028C
:1006A00008BF704730B511F0004502D5404261EBFC
:1006B00041014FF4806404F132045FEA915C3FF43D
:1006C000D8AE4FF003025FEADC0C18BF03325FEADA
:1006D000DC0C18BF033202EBDC02C2F1200300FA8B
:1006E00003FC20FA02F001FA03FE40EA0E0021FAB0
:1006F00002F11444BDE600BFFEE700BF0D4B0E4AF9
:10070000934206D00D4951F8040B43F8040B934271
:10071000F9D10B4B0B4A934204D0002143F8041B40
:100720009342FBD107F032FB12F004F801F046FFD0
:10073000FEE700BF000000243403002468430108E2
:1007400038030024809F0624704700BF704700BF15
:10075000704700BF704700BF704700BF704700BFC1
:10076000704700BF704700BF704700BF704700BFB1
:10077000704700BF704700BF704700BF002200F104
:100780000801426002720160704700BF002A2DE933
:10079000F04F40DD80460998551E099C02EB400051
:1007A000A8F10409254408EB820801384FF0000B3A
:1007B000471B1B4EEC17B44686FB076EFE178CFBDF
:1007C00005AC05F1FF3AC6EB6E06C4EB6C0C59F8AC
:1007D000044F06EB46060CEB4C0CA7EB8606A5EB8C
:1007E0008C0C8E5D16B19C42B8BFA34611F80C600C
:1007F00058F8044D16B19C42C8BF2246099CAC4231
:100800005546D5D1A3EB0B00D31A8342D4BF104673
:100810005846BDE8F08F18464FF0000BF4E700BFD4
:10082000ABAAAA2ADFED317AB4EEE70A30B5F1EED1
:1008300010FA83B030D4DFED2E7AB4EEE70AF1EE91
:1008400010FA1BD4DFED2B7AB4EEE70AF1EE10FAC2
:1008500030D4DFED297AB4EEE70AF1EE10FA37D49E
:1008600018DD022325484FF08145254C42680021C0
:100870000093244B256010F0F7FE0BE002231F4885
:100880004FF07C551E4C4268002100931E4B2560A2
:1008900010F0EAFE03B030BD184802234FF07A553D
:1008A000174C426800210093184B256010F0DCFEC5
:1008B00003B030BD114802234FF07E55104C426802
:1008C00000210093124B256010F0CEFE03B030BD26
:1008D00002230A484FF08045094C426800210093EA
:1008E0000C4B256010F0C0FED4E700BFCDCC4C3ED1
:1008F000CDCCCC3E9A99193FCDCC4C3F540300242B
:1009000048900624A038010894380108903801085E
:10091000983801089C380108DFED187AB4EEE70A30
:10092000F1EE10FA03D5164B01221A607047DFED85
:10093000157AB4EEE70AF1EE10FA03D5104B022255
:100940001A607047DFED107AB4EEE70AF1EE10FAA4
:100950000AD4DFED0E7AB4EEE70AF1EE10FA07D50D
:10096000074B08221A607047054B04221A60704733
:1009700002DD034B10221A60704700BFCDCC4C3E05
:1009800040020024CDCCCC3E9A99193FCDCC4C3FAF
:100990009FED536BB7EEC07AB4EEC67BF1EE10FA62
:1009A0001FDD9FED577ADFED576A30EE477A9FEDF6
:1009B000566ADFED567A27EE267AC7EE066A36EEDD
:1009C000A77A30EE470AB4EEE70AF1EE10FA78D4CF
:1009D000F0EE007AB4EEE70AF1EE10FA7ADCB7EE48
:1009E000C07A9FED416BB4EEC67BF1EE10FA1DD5D7
:1009F000F1EE047ADFED436ADFED435AB8EE006AA8
:100A000070EE277A67EEA67A87EEA57A77EE667A99
:100A100030EE670AB4EEC60AF1EE10FA57D4B5EE1E
:100A2000C00AF1EE10FA4FDCB7EEC07A9FED306BE2
:100A3000B4EEC67BF1EE10FA1FDD9FED357ADFEDE7
:100A4000356A30EE477A9FED346ADFED307A27EE73
:100A5000267AC7EE066A36EEA77A30EE470AB4EE7B
:100A6000E70AF1EE10FA2CD4DFED2C7AB4EEE70AA7
:100A7000F1EE10FA25DCB7EEC07A9FED1F6BB4EEF5
:100A8000C67BF1EE10FA1BD5B0EE007ADFED216ADD
:100A9000DFED215A9FED226A30EE077A27EE267AA3
:100AA000C7EE257A77EEE67A30EE670AB4EEC60A2C
:100AB000F1EE10FA11D4B5EEC00AF1EE10FA03DC33
:100AC0007047B0EE670A70479FED100A70479FEDC0
:100AD000140A70479FED110A7047B0EE460AEFE71F
:100AE0009A9999999999D93F9A9999999999D9BF28
:100AF0009A9999999999E93F9A9999999999E9BFF8
:100B0000CDCCCC3E9A99193F33339340000000007E
:100B1000CDCC4C3FCDCCCC3D9A99993F6666663F93
:100B2000666666BFC54B1A68012A2DE9F04F044678
:100B30000D462DED068BB0EE409A87B0F0EE608A40
:100B400040F2AA819FEDBEAAB0EE4A6ABD4FBE48F0
:100B50003968013180FB0130CB17C3EBE00303EBB5
:100B60004303A1EB03133B60002B00F06A82B74BF9
:100B7000B74F93ED008AB749B74BD1ED007AD3ED6B
:100B8000006A78EE674A9FEDB55A78EE665A9FED97
:100B9000B47AE4EE857AE5EE876AC1ED007AF0EE8C
:100BA000663AC3ED006A002A40F09480F5EEC07A00
:100BB000F1EE10FA00F17482F7EE006AF4EEE67AD4
:100BC000F1EE10FAB5EEC08A76FEA76AF1EE10FAE1
:100BD00000F16E82B7EE007ADFED995AB4EEC78A63
:100BE000F1EE10FAF4EEE57A37FE087AF1EE10FA3B
:100BF00000F16882F7EE005A9A4BC3ED106AF4EEEA
:100C0000E57A83ED117AF1EE10FAB5EEC08AD8BF1D
:100C100067EEA75AF1EE10FAC3ED125A00F17B828B
:100C2000B7EE007AB4EEC78AF1EE10FA00F36B82E9
:100C300028EE087AF0EE486AF5EEC07AC3ED136A42
:100C4000C3ED146A83ED157AF1EE10FA00F15882C3
:100C5000F7EE006AF4EEE67AF1EE10FA76FEA76A95
:100C60009FED777AB4EEC78AF1EE10FA00F1408278
:100C7000F7EE005AB4EEE58AF1EE10FAF4EEC77A18
:100C800075FE885AF1EE10FA08D4B7EE007AF4EE49
:100C9000C77AF1EE10FAD8BF27EEA77AB5EEC08A70
:100CA000C3ED196AC3ED1A5A83ED1B7AF1EE10FAFF
:100CB00000F12C82B7EE007AB4EEC78AF1EE10FA9A
:100CC00000F32E8228EE087A83ED168A83ED178AC8
:100CD00083ED187AF6EE009A634A644BB6EE083A52
:100CE000D2ED006AB0EE694A93ED007A604AF0EE08
:100CF000694A604B27EE066AA6EEA94AD2ED005A71
:100D000093ED005AE7EEA94ADFED5B7A27EE0A7A07
:100D100075EEC55A5948E3EEC36ADFF87491584E30
:100D2000A5EEA75ADFF86C8126EE046AF0EE497A48
:100D300027EE047AC0ED006AE6EE247A83ED005ACD
:100D4000B0EE676AF0EE687A26EE296AE4EE877AFA
:100D500026EE050AF0EE674AFFF71AFE8DED040A4B
:100D600064EEA94A24EE850AFFF712FE234605AA7F
:100D700004A900958DED050A0EF0E2FE94ED008ABF
:100D8000D6ED006A89ED008A95ED006ADFED3D7AC7
:100D900026EE067AD7F8C030F4EEE76A88ED006AEE
:100DA00007EB83020133A8EE087AF1EE10FAC7F8D8
:100DB000C03027EE297A82ED007A40F3F6804FF0BA
:100DC0007E53DFED1F9A3360A9EE298ADFED2E7A7C
:100DD000B6EE007A28EE278A84ED008A96ED000AA6
:100DE00070EE007A27EE877AB5EE407AB1EEC78AC8
:100DF000F1EE10FA00F1B581B0EE000A9FED237A12
:100E0000D8ED006A30EE670A28EE268A20EE070A3F
:100E1000B5EE400AB1EEC09AF1EE10FA00F19E81F3
:100E2000A8EE898ADFED187A28EE278A85ED008AF8
:100E300007B0BDEC068BBDE8F08F00BFA48F062481
:100E4000000000000C900624ABAAAA2A2C900624CD
:100E50009C2F0024EC8F062400900624CDCCCC3DA2
:100E60000AD7233C18880624FC8F062410900624F9
:100E700048020024309006246F12833AD47C002468
:100E8000F88F062448E17A3F3333333F3333733FDF
:100E9000F08F0624F48F0624DFF824B3B94BDBF877
:100EA00000001F68B8493E46871C0968B74B06F129
:100EB000020ADFF810E31B68DFF80CC303960E4646
:100EC00097FBF1F801FB1877DEF80010CBF8007003
:100ED00001F10109DCF800109AFBF3F701F10108B8
:100EE00003FB17AAA749AA4FC1F800A007EB80008F
:100EF000DEF8001090ED006A07EB810799FBF6F031
:100F000087ED000A06FB1091A24898FBF3F7CEF894
:100F1000001003FB1783DCF80010039FCCF80030AF
:100F200000EB870700EB810097ED00AAC0ED000AF7
:100F3000002A5DD1984FF1EE006A9848B6EE007A2B
:100F4000D7ED007A0068FDEEE75A954B77EEA67A6A
:100F500006EE900A15EE901AF8EEE65AC7ED007A02
:100F600003EB8101F4EEE57AD1ED006AF1EE10FABF
:100F7000A6EE876AA6EE87AA03DD77EEE57AC7EDCF
:100F8000007A884F79EE287AB6EE007A396801F156
:100F9000010C03EB810367EE877A9CFBF0F100FB09
:100FA00011C1C3ED007A3960D0E576EEA66A26EE6F
:100FB000A90AB5EE400AF1EEC09AF1EE10FA00F17E
:100FC000BB80B0EE000ADFED787A70EE666A66EEFE
:100FD000A76AF5EE406A28EE298AF1EEE69AF1EE6C
:100FE00010FA7FF5F1AEB0EE660A11F065FAEBE6A5
:100FF000012A7FF4ABAD684FB6EE007A6748D7EDB3
:10100000007A0068FDEEE76A654B77EE877A07EEB7
:10101000100A16EE901AF8EEC76AC7ED007A03EBD5
:101020008101F4EEE67A91ED007AF1EE10FA36EEF7
:10103000076A3AEE07AAA4DD77EEE67AC7ED007AF2
:101040009FE75A4FD7F8C020002A40F384803B46E0
:1010500007EB8201DFED567AB3EC017A994277EE25
:10106000877AF9D107EE102AB8EEC77A87EE870A99
:10107000B5EE400AB1EEC08AF1EE10FA7AD44B4BCD
:1010800003F1C001002243F8042B8B42FAD1494BF3
:1010900000211A68484BC7F8C01083ED008A6AE542
:1010A000B5EEC08ADFED426AF1EE10FA7FF592AD3F
:1010B000DFED3F5A9FED3E7AF4EEE57AF1EE10FA5D
:1010C0007FF598ADB5EEC08A3C4BC3ED106AF1EEEA
:1010D00010FA83ED117AC3ED125A7FF5A1ADF0EE4F
:1010E000656AC3ED135AC3ED145AC3ED155AB7E53B
:1010F000F5EEC07AF1EE10FA15D4F0EE475AC4E5D9
:10110000DFED2B6AACE5F0EE476A95E59FED288AA6
:10111000B0EE487AD8E59FED267AF0EE476A8BE587
:10112000B0EE478AD0E5B0EE478AC3ED196A83ED89
:101130001A7A83ED1B7AC7E511F0BEF9F0EE007A5A
:1011400096ED007ADFED186AE7EE677A99ED008A8E
:1011500067EEA66A3DE7DFED167A83E711F0ACF99A
:101160005EE6B0EE470A11F0A7F996ED000A70EEC0
:10117000007A41E68DED036A11F09EF99DED036A58
:101180007DE700BF189006244C0200245002002482
:1011900000580FC200905FC11C9006245402002426
:1011A00000C8AFC0289006243333733F9C2F00241F
:1011B00000000000A48F06242C9006241888062422
:1011C0001490062420900624249006240000000099
:1011D000EB4BB2EE087ADFEDEB6AD3ED007AEA4B27
:1011E00077EEE67A2DE9F04F2DED088B85B0B0EE65
:1011F000409AF0EE608A93ED008AC7EE870A0E46A9
:101200000090E24FE24CE34DB0EE000A10F040FED9
:10121000DFEDE17AE14BB3EE096A20EE270AE04AFE
:10122000F7EE007A93ED005A92ED007AC8EE005A7C
:10123000D7ED006ADB48DC490268DFF8B0E3F0EE86
:10124000674A0132B8EEC77A81FB0231D317E5EE67
:10125000064AC3EBE10303EB4303A2EB031387EE60
:10126000A46A0360C5EE877A77EEE67AE6EE276A2F
:10127000FDEEE67AC7ED006A17EE902AB8EEE77A3F
:10128000724576EEC76A28BF7246C4ED006AA26056
:10129000AA60C5ED006A002B00F09C829646C34A06
:1012A000C34B774692ED008AC24ADFEDC35A92EDF6
:1012B000007AC24938EE475A9FEDC16AD1ED007AF3
:1012C000A5EE257A38EE678AE8EE067AB5EEC07AA2
:1012D00082ED007AF1EE10FAC1ED007A00F175822C
:1012E000B7EE006A9FEDB75AB4EEC67AF1EE10FA87
:1012F000B4EEC57A36FE076AF1EE10FAD4BF26EED8
:10130000075A26EE055AB049B2EE044AAF48D1ED6D
:10131000005A80ED106AF8EEE55ADFEDAD4A80ED37
:10132000115AF4EEE47A85EE846AF1EE10FA80ED5B
:10133000126A00F13382F7EE005A9FEDA25A80ED57
:10134000156AF4EEE57AF1EE10FAF4EEC57A75FE60
:10135000A75AC0ED135AF1EE10FAB5EEC07AD4BF19
:1013600025EEA75A25EE855AF1EE10FA80ED145AB3
:1013700000F1D381F7EE005A9FED925AB4EEE57A70
:10138000F1EE10FAB4EEC57A75FE875AF1EE10FA56
:10139000D4BF25EE877A25EE857AF5EEC07AC0EDCA
:1013A000195A80ED1A7A80ED1B6AF1EE10FA00F1FD
:1013B0004282B7EE007ADFED835AF4EEC77AF1EE9F
:1013C00010FAF4EEE57A37FE277AF1EE10FAD4BF80
:1013D00067EE277A67EE257A0193B7EE008A6B688D
:1013E000DFF80CC21F44DFF80C8280ED186A07F1A9
:1013F000010AACFB073B80ED167AACFB0A394FEAD9
:10140000DB3BC0ED177A4FEAD93908FB1B776068E0
:1014100008FB19AA05EB87077044009905EB8A0AB7
:10142000D7ED037A471CACFB003E9AED037AACFB88
:10143000073C4FEADE3E37EE677ADFF8BCA14FEAA1
:10144000DC3C08FB1E0E6348E7EE267A08FB1C789E
:1014500004EB8E0EDFF8A4B104EB880CDFF8A0914A
:10146000DFF8A0815C4FC1ED007ADEED037A9CEDE0
:10147000037AD4ED006A37EE677AE7EE267AC6ED96
:10148000007A0EF001FF50460EF0E6FD314653485B
:101490000EF0FAFE58460EF0DFFD99ED003A98ED99
:1014A000005AB7EEE84A9FED467AB7EEC90ADFED7B
:1014B0004C5A03A923EE076AD7ED009A25EE077A66
:1014C000DBED0C8A23EE253A02A8B7EEC66A9AED48
:1014D0000C9AB7EEC77A25EE255AB7EEC33A9FEDC0
:1014E000242B9FED251BB7EEC55AA4EE027BA0EE80
:1014F000026BA4EE015BB0EE472B78EE697AA0EEAA
:10150000013BB7EEE77AB7EEE94ADFED369A26EE11
:10151000076B27EE027BA3EE046BA4EE057BB7EE10
:10152000C60BF7EEC70BFFF7FDFA68EEA87A2E4A56
:10153000F6EE006A019BB7EEC90AE9EE097A92ED70
:10154000007A97ED006AB5EEC07AD3F8C01038EE95
:10155000466A184A03EB81009DED025AF1EE10FA3B
:1015600001F1010167EEA67A4EE000BFAFF3008003
:101570002B8716D9CEF7EF3F7B14AE47E17A843F35
:101580003C02002400008A42388F0624C08F0624C3
:101590000020BFC20C73C6C20000DC43D08F0624FB
:1015A00040020024E08F0624ABAAAA2AE88F062472
:1015B000407B0024BC8F062417B7D138CC8F06247B
:1015C0006F12833ACDCCCC3DD48F062418880624E4
:1015D0000000000048890624C48F0624648906247C
:1015E0003333333F9A99593FC88F0624BFD4010043
:1015F00073B2E745C0D4010088880624D488062445
:10160000D88F0624DC8F0624B7EEC55AC3F8C01065
:1016100026EE296AC0ED007AD2ED007A8E4840F3BA
:101620008180B7EEC66AA7EEE97A9FED89AB36EE08
:101630000A6BB7EEC77AA5EE060B27EE000BB7EEE6
:10164000C00B0FF075FAD7ED007A844AB7EEE85A6E
:1016500038EE677A9DED034AD2ED007AB0EE40BADB
:101660007F4AB7EEC44A27EE297A7E4892ED006A97
:10167000A7EEE96AB7EEC77A37EE0A7BB7EEC66A1D
:10168000A4EE075B26EE056BB7EEC60B0FF050FA23
:10169000F0EE407A9FED747AD7ED006AF4EEC76AF7
:1016A000F1EE10FA02DD4FF07E533B606A6860682D
:1016B0006E4905EB82076E4B02EB010E0144DFF829
:1016C000C4C104EB8000A3FB0EA29FED6A5AA3FBEA
:1016D00001A3D20B29EE050ADB0BC0ED037A0CFB4C
:1016E00012E20CFB13136A60636089ED009AC8ED87
:1016F000008A87ED03BAFFF74BF9F0EE407A009BC2
:1017000028EE850AC3ED007AFFF742F986ED000A5C
:1017100005B0BDEC088BBDE8F08F9FED577AF0EE79
:10172000475A3AE69FED4AABB7EEC66AA7EEA97AEA
:1017300036EE0A6BA5EE060BB7EEC77A27EE000B66
:10174000B7EEC00B0FF0F4F997ED007A434AB7EE0D
:10175000E85A38EE477A424BD2ED007AB0EE40BA02
:1017600093ED006AB0EE450B27EE297A9DED034A12
:10177000A7EEA96A3B48B7EEC44AB7EEC77A37EE80
:101780000A7BB7EEC66AA4EE070B26EE000BB7EE97
:10179000C00B0FF0CDF9F0EE407A7BE7B5EEC07AE2
:1017A000C0ED134AC0ED144A80ED156AF1EE10FA4F
:1017B0007FF5E0ADF0EE647AC0ED194AB0EE647AE0
:1017C000C0ED1A4A80ED1B6A06E69FED2B5AB0EE7B
:1017D000456A98E5294BD3F8C010002930DD1A4638
:1017E00003EB8100DFED247AB2EC017A904277EED0
:1017F000877AF9D107EE101AB8EEC77A87EE870A12
:10180000B5EE400AB1EEC08AF1EE10FA1BD41B4AC5
:1018100002F1C000002142F8041B9042FAD10021DD
:10182000174AD5ED006AD4F808E0AF68C3F8C010D5
:1018300082ED008A38E5DFED107AB0EE677ACBE50D
:10184000DFED0D7AD6E7019310F036FE019BDEE75F
:10185000333333333333C33FB8890624BC8F062474
:10186000C88F0624C489062448E17A3FBFD401000A
:1018700073B2E745CDCCCC3D00000000407B002496
:10188000E88F0624C0D40100F0B58A4CB6EE007A89
:10189000D4ED007A884CF4EEC77AD4ED035A94ED77
:1018A000045AF1EE10FA2DED028B85B00C9E40F13A
:1018B000DF80F1EE677A9FED813AB0EE007AF7EEC5
:1018C000003A37EEA74AE7EE873A751E002E72D02F
:1018D000074694ED017AB0EE656AF2EC017A013DBB
:1018E000D4ED006AE7EE657A94ED027AB5F1FF3F38
:1018F000E6EEE57A77EEC57A67EE877AA6EEA76A16
:1019000026EE037AA6EE865AF0EE465AA7EE847AC1
:10191000E6EEA75AF0EE454AA6EE865AF0EE477A72
:10192000E4EEA37AE7EC017AD3D1C4ED035A03EBDA
:10193000860784ED045A1C46614D28E0B4EEE70AA0
:10194000F1EE10FA34DC30EE000A20EE260AB5EE95
:10195000400AF1EEC08AF1EE10FA00F19680B0EE86
:10196000000AB0EC018A28EE288AA7EE400AB5EEFC
:10197000400AF1EEC08AF1EE10FA00F19180D4ED48
:10198000007AA7EEA88AA4EC018AA74213D095EDAD
:10199000007AF6EE006A9FED4B0AF7EE007A37EE1A
:1019A000400AB5EEC00AF1EE10FAC7D5DFED437A72
:1019B000F1EEE78AD3E74448B6EE007A434AD0ED29
:1019C000007AD2ED035AF4EEC77A92ED045AF1EEA2
:1019D00010FA40D5F1EE677A9FED383AB0EE007A12
:1019E000F7EE003A37EEA74AE7EE873A5EB301EB2F
:1019F000860692ED017AB0EE656AF3EC017AD2EDDB
:101A0000006AE7EE657A92ED027AE6EEE57A77EE25
:101A1000C57A67EE877AA6EEA76A26EE037AA6EE67
:101A2000865AF0EE465AA4EE277AE6EEA75AF0EE72
:101A3000454AA6EE865AF0EE477AE4EEA37AE1EC48
:101A4000017AB142D5D1C2ED035A82ED045A05B0F4
:101A5000BDEC028BF0BDB0EE007ADFED183AB8EEC7
:101A6000004ABFEE003AA7EE874AA7EE873ABDE7E5
:101A7000B0EE007ADFED113AB8EE004ABFEE003A60
:101A8000A7EE874AA7EE873A1FE7CDE90213019038
:101A900010F012FD95ED007A0198DDE902135EE782
:101AA000CDE90213019010F007FD0198DDE9021362
:101AB00065E700BF248F062420890624000000006B
:101AC0002C8F0624CDCC4C3D288F06243489062447
:101AD000EB4ADFEDEC7A13682DE9F04F0133EA4C65
:101AE00080462DED068B85B060EE279A20EEA78A02
:101AF000009184FB0314D917C1EBE40404EB440404
:101B0000A3EB0414E14B1460002C00F0E483E04AE2
:101B1000D3F8C04092ED007A621CDE4DD5ED007A1C
:101B2000F4EEC77AF1EE10FA40F38A83DA49B2EEA6
:101B3000046ADFEDDA5A37EE677AD1ED006A66EEB5
:101B4000A56A66EE866AE6EE877AD54EB2EE0A6A36
:101B500029EEA99A03EB840496ED00AA68EE088AA0
:101B6000F3EE046AC5ED007A27EE8AAAC3F8C02016
:101B7000F6EE005A39EE287A2AEE06AA27EE257AE2
:101B8000B4EEE6AA84ED007AF1EE10FA00F17C835F
:101B90009FEDC47AB4EE47AAF1EE10FA37FE0AAA16
:101BA00027EEA77ADFF860A3DFEDBFAABF488AED72
:101BB000107ACAED137A8AED197ACAED167A80ED99
:101BC00003AACAED14AACAED15AACAED11AACAED54
:101BD00012AACAED1AAACAED1BAACAED17AACAED23
:101BE00018AA0EF061FBB248DFF8209380ED03AA3B
:101BF0000EF05AFBAF4BB7EECA4A9FEDAF3AB0EECC
:101C0000005A93ED006AF7EE003A96ED002A8AEE4C
:101C1000067ADFEDAA2ADFEDAA5ADFEDAA7AAA4CEE
:101C2000AA4BB0EE43AAC9ED013AB7EEC66AC4EDBD
:101C3000013AA2EE45AA9FED8E1B26EE016B27EE20
:101C4000075AB4EEEAAAE5EE225AF1EE10FA9FED39
:101C50008A2BE5EE257AA4EE026B67EE277A37EE43
:101C6000A37AC9ED007AC4ED007AB7EEC66BA7EE91
:101C7000A77A83ED016AF0EE477A83EEA77A89EDC1
:101C8000027A84ED027A00F1FC82B4EE43AAF1EE0E
:101C900010FA33FE0AAAB0EE4A0A8D48DFF870B295
:101CA0000EF03AFA8B48B0EE4A0A0EF035FADBF83D
:101CB00000208949501C0B6890FBF3F203FB1202D1
:101CC000CBF80020002A00F06F838449844AD1EDCC
:101CD000006AD2ED005A13EB43039FED825AB7EE30
:101CE000006A814948BF0133804891ED007A5B105A
:101CF00090ED000A76EEC76A7D4A07EE903ADFF86B
:101D000014A27C4BF8EEE77A77EEA57ADFED7A5AEB
:101D1000B4EEE50A67EE857A86EE275AF0EE477A4A
:101D2000E5EE267AFDEEE76AC1ED007A16EE901A2E
:101D3000B8EEE67A914277EEC77A28BF1146F1EE07
:101D400010FA0A469960CAF80810C3ED007ACAED85
:101D5000007A40F37C829FED540A80ED006A596856
:101D6000B5EE400ADFF894C1B1EEC0AA0A44DFF82C
:101D700090E102F1010BACFB0271ACFB0B7CC90BD7
:101D8000F1EE10FA4FEADC3C0EFB11210EFB1CBCFD
:101D900003EB810103EB8C0C91ED037ADCED036A1C
:101DA00076EEC76AA6EEA77A27EE067A00F18E8352
:101DB000A9EE8A7AF6EE007A88ED007A90ED000AB4
:101DC00030EE007A67EE277AF5EE407AF1EEE7AA78
:101DD000F1EE10FA00F17083DAF80410B0EE000AA8
:101DE000DAF80820454801EB020E454930EE470A73
:101DF000DFED447A0EF1010CA0FB0E72DAED006A01
:101E0000A0FB0C70D20B20EE270AC00B01FB12E2E4
:101E100001FB10C00AEB8202B5EE400A0AEB80001B
:101E2000D2ED037AB1EEC0AA90ED037A37EE677A6D
:101E3000F1EE10FAE7EE267A67EEAA7A00F14E8309
:101E4000E8EE0A7A009BDFF888B002A91748DFF8AD
:101E50008480C3ED007A99ED037AD4ED037A99ED8D
:101E6000016AD4ED016AE6EE479A55E0AFF30080CF
:101E7000333333333333D33F333333333333E33FCA
:101E8000708F0624CDCC4C3FABAAAA2AAC2D0024DF
:101E9000788F0624408F0624140200240AD7A33B1F
:101EA0004C8F062400409C46000000004889062410
:101EB00064890624388F06240000484349265F427F
:101EC0008FBA2141DB0F494034890624D47C002499
:101ED00088880624D48806245C8F0624748F062400
:101EE000508F06249A99993F3C8F0624588F0624D8
:101EF000BFD401000C73C6C248E17A3F73B2E74514
:101F0000C0D401003333733F188806242089062487
:101F10006C8F06240020BFC299ED005AA6EEE78A16
:101F200094ED006AD9ED045AD4ED046A99ED024AA1
:101F3000D4ED024AE7EE459AA7EEC68A79EEE59A15
:101F400038EE668A69EE849A28EE248AA5EE297A0C
:101F5000E6EE087AE5EE075AE6EE276AB0EE474A63
:101F6000F0EE674AA5EE294AF0EE653ACDED025A49
:101F7000F0EE665ACDED036AE6EE084AE5EE073A62
:101F8000E6EE275A89ED034AC4ED034AC9ED043A47
:101F9000C4ED045A0EF078F958460EF05DF803A926
:101FA000EB480EF071F940460EF056F8B3EE0E6AAB
:101FB000D6ED004AE748F4EEC64ADBED0D1AD0ED47
:101FC000006A98ED0D1AF1EE10FAE34B76EEA66A70
:101FD00000F15D819FEDE16AF4EEC64AF1EE10FA80
:101FE00000F34C8136EE647AC7EE067ADC49DD4AAE
:101FF00091ED003AD2ED003AB2EE025A95ED002A88
:10200000F0EE492AB7EE006AF2EE045AE3EE052A32
:10201000B0EE683A36EE426AB3EE044AA3EE853A71
:10202000DFEDD13AE6EE276A82EEA55A83EE256A05
:10203000F4EEC44A66EEA36AF1EE10FAC0ED006A4F
:1020400081ED005A82ED006A00F12481DFEDC75A6C
:10205000F4EEE54AF1EE10FA00F3E58175EEE47A6C
:1020600087EEA56A9FEDC25ADFEDC05AF0EE617AA5
:10207000B0EE417AF4EEE54AE1EE067AA1EE867A18
:1020800066EEA11A66EE816AF1EE10FA29EE219A47
:1020900077EEA17A68EEA68A37EE267AE9EE057A1F
:1020A000A8EE857AE7EE067A00F3C08175EEE46A61
:1020B00086EEA55AA7EE857AB7EEE76A9FEDA05B9C
:1020C000B4EEC56BF1EE10FA21DDDFEDAA6A9FEDEB
:1020D000AA6A77EEE66A9FEDA95ADFEDA95A66EE85
:1020E000866A86EE856A76EE256A77EEE67AF4EE03
:1020F000E57AF1EE10FA00F1AF81F7EE006AF4EE46
:10210000E67AF1EE10FA00F3B681B7EEE76AB7EEC1
:10211000C75A9FED8B4BB4EEC45BF1EE10FA21DD94
:10212000DFED945A9FED945A77EE655A9FED934AEE
:10213000DFED934A65EE855A85EE845A75EE245A92
:1021400037EE657AB4EEE47AF1EE10FA00F17781B9
:10215000F7EE005AB4EEE57AF1EE10FA00F38E8154
:10216000B7EEC75A9FED784BB4EEC46BF1EE10FAA0
:102170001ED5F2EE046ADFED804ADFED803ABFEE55
:10218000004A77EEA66A66EEA46A86EEA36A76EE49
:10219000646A77EEE67AF4EEC47AF1EE10FA00F1B2
:1021A0004B81F5EEC07AF1EE10FA01DDDFED747AC5
:1021B0009FED656BB4EEC65BF1EE10FA1ED5F2EE44
:1021C000046ADFED6D5ADFED6D4ABFEE005A77EE1F
:1021D000266A66EEA56A86EEA46A76EE656A37EE32
:1021E000667AB4EEC57AF1EE10FA00F12281B5EE0E
:1021F000C07AF1EE10FA01DD9FED617A5C68DAF8E1
:102200000450604803EB84075F4A044428445F4E4F
:102210000AEB8505A2FB04C1A2FB00C2C90BC7EDF6
:10222000037AD20B85ED037A06FB114106FB1202FD
:102230005960CAF8042005B0BDEC068BBDE8F08FEC
:1022400037EE677ADFED526AE7EE267A7DE430EE0C
:10225000007AB6EE000A27EE000AB5EE400AB1EEAB
:10226000C06AF1EE10FA00F10C81B0EE000ADFED69
:10227000496A30EE470A20EE260A70E5DFED407A23
:10228000B4E6B0EE6AAA06E5B0EE66AA88E4DFED31
:10229000427AABE626EEA17ADFED3F5A26EE816A5E
:1022A000DFED334AF0EE617AF0EE416A29EE079AEB
:1022B000E1EE257AE1EEA56A68EE868AB0EE655A0F
:1022C00077EE877A36EE867AE9EE247AA8EEA47A5B
:1022D000E7EE257AEEE6D3F8C010002940F3E98056
:1022E0001A4603EB8100DFED267AB2EC017A9042C8
:1022F00077EE877AF9D107EE101AB8EEC77A87EE33
:10230000870AB5EE400AF1EEC08AF1EE10FA00F14C
:10231000EC80224A02F1C000002142F8041B9042E6
:10232000FAD11F4AF2EE047A1E4992ED007A012298
:1023300028EE877A27EE277A81ED007AFFF7EDBB4A
:102340009A9999999999D93F9A9999999999D9BFAF
:1023500064890624688F06240C73C6C20000964365
:10236000608F0624648F0624C3F5A83E000048430E
:102370000AD7233CCDCCCC3E9A99193F9A99194162
:1023800000000000BFD4010073B2E745C0D40100D3
:10239000CDCC4C3D3333733F6666663FAC2D002495
:1023A00010020024788F062400230A22CAF81C3069
:1023B000CAF82030CAF82430CAF82830CAF82C30BD
:1023C000CAF83030CAE9012210F0C2FA4E490B684F
:1023D00090FBF3F202FB130307EE903AB8EEE7AA84
:1023E00010F0B6FA494AB1EE046A4749D2ED007AD4
:1023F0000B686AEE277A9FED467A4649DFF828C1D6
:10240000C7EE866A90FBF3F202FB130007EE900A18
:10241000CBF80000F8EEE75A76EE876ACCED005A6A
:10242000C1ED006A57E49FED3C6A1BE69FED3A5A06
:1024300040E6B0EE457AE1E6F0EE447AB8E6B0EE7A
:10244000647A9FED2D5BB4EEC56BF1EE10FA7FF56B
:10245000D5AEB7EEC75A8CE6F0EE657AB7EEC75A3E
:102460009FED276BB4EEC65BF1EE10FA7FF7A0AEDE
:10247000B7EEE76A54E6F0EE667AEFE7B0EE657A1B
:10248000DFE78DED016A10F017F82448F0EE007ACE
:10249000234BD0ED006A9FED237AE6EEE77A9A6847
:1024A0009DED016AB0EE670AD3ED007A20EE070ACF
:1024B00055E4DFED197A1EE7B0EE670A0FF0FCFF76
:1024C000164890ED000A30EE007A85E48DED017A31
:1024D0000FF0F2FF11489DED017A69E4CDED017A2C
:1024E0000FF0EAFFDDED017AAAE401930FF0E4FFBB
:1024F000019B0EE7AFF300809A9999999999D9BFFA
:102500009A9999999999D93F5C8F0624548F0624FA
:102510006F12833A748F062400000000588F06243F
:102520000C73C6C23333733F508F06240023144A02
:102530001448154930B41370144C154D154A2360D6
:1025400003600B60144C154815492B60002513607F
:10255000144B256005600D601D60134A134C144830
:102560001449154D002342F8043BAA4244F8043BA9
:1025700040F8043B41F8043BF4D130BC704700BF45
:10258000908F06242402002420020024A08F062419
:102590009C8F06248C8F0624948F0624848F062417
:1025A000988F0624888F062400580FC200905FC1C0
:1025B00000C8AFC0000000C00020BFC22DE9F04F2E
:1025C0000121C8482DED048B89B004F071FBC5488A
:1025D00004F06CFCC448F0EE408A0DF0F5F9C34BF2
:1025E000C349002243F8042B8B42FAD1C14F00208B
:1025F0000121C14BC14AC7E901019FEDC18AA3EC8A
:10260000018A9342F9D101230024DFF89C83B0EEC4
:10261000680ABC484FF07C59C8F8083001ADC8F8CA
:1026200004400DF023FEB0EE680AB7480DF01EFE20
:10263000B0EE680AB5484FF0FF3B0DF0E7FCB0EE96
:10264000480AB2480DF068FD00EE109AAF480DF050
:10265000C7FDB0EE680AAE480DF0D8FCB0EE480AEF
:10266000AB480DF059FD00EE109AA9480DF0B8FDE9
:10267000A84EA94AB0EE680AA84B3046DFF82CE312
:10268000DFF82CC3A64982ED048A82ED038A83ED2C
:10269000048A83ED038AC2F800E0C3F800E0C2F8C0
:1026A00004C0C3F804C0916099600DF029FC304665
:1026B00086ED018A0DF0BAFB3046C6F808900DF0A1
:1026C000B5FB984BB0EE680A9748C3ED008A0EF050
:1026D00027FAB0EE680A95480EF022FAB0EE680AC2
:1026E00093480EF01DFAB0EE680A92480EF018FA00
:1026F0009149924A924BC1F80090C2F80090C3ED04
:10270000008A90489049914A914B924EC0ED008AC0
:1027100081ED008A82ED008A83ED008ADFF894E281
:10272000DFF894C2DFF894A2DFED8B0A9FED8B0AED
:10273000CAF800904FF07E5ACEF80090CCED008A97
:102740000FCE0FC596E8070085E8070001A9022211
:10275000834806F10C0904F037FC06F1600C0DF11A
:10276000040EDFED7D0A9FED7D0ABCE80F00AEE8A8
:102770000F009CE8070085E8070001A902227948BC
:1027800004F022FC0DF1040CDFED730A9FED760AD4
:10279000B9E80F00ACE80F0099E8070085E80700EA
:1027A00001A90222714804F00FFC06F1280C704ABE
:1027B0000DF1040E6F4B0C361460B3EE040A5C602E
:1027C000DFED650ABCE80F00AEE80F009CE80700EB
:1027D000694BDFF8ECC1DFF8ECE1CCF800A0CCF8F5
:1027E00004A0C3F800A0DFF8E0C1C3F804A0634B65
:1027F0008CED008A8CED018A83ED008A83ED018ADD
:1028000085E8070001A902225D48CEE900BB04F07B
:10281000DBFB0DF1040CB1EE000ADFED5A0A0FCE1E
:10282000ACE80F0099E8070028EE800A564E68EEE3
:10283000A00A85E8070001A90222544804F0C4FB5D
:10284000F6EE087ADFF884C12346514968EEA77A8C
:102850002548504D504CBDEEE77ACCED007AC6EDE0
:10286000007A4E4A17EE10CAF8EEC76A45608C45EA
:10287000046077EEE67A28BF8C46C7ED007AC7F889
:1028800008C0C8F808C0C8ED007A10E007EE103A9A
:102890008B42B8EEC77A37EE677AC7EE067A77EEE4
:1028A000A67AC2ED007A00F09380013304322F2B18
:1028B000DFED3B7A40F22B119FED3A6ADFED106AB3
:1028C000E4D8B0EE676A07EE903AF7EE006AF8EEE9
:1028D000E77AF1EE677A87EE867A77EE267AC2EDAE
:1028E000007AE2E790900624D47C00241873C6C2D4
:1028F00018C6CDC20C73C6C20C20BFC20C73C6C2B0
:10290000000000004889062464890624888806247B
:10291000D488062480890624208906243489062444
:10292000CAAA7F3F388F0624B8890624C4890624A2
:10293000CC030024D8030024648F0624608F06246F
:10294000748F06243C8F0624788F0624408F06243B
:10295000688F06241C92062400409C4600007042AA
:10296000047C0024387C00240000C843487A0024FA
:10297000D88E0624E08E0624C08E0624D08E06242F
:10298000A42E00240000803DC08F0624702E002459
:10299000BFD4010000A00C469A99593FD089062463
:1029A0000000404200007C430020BFC222BA003D2C
:1029B0000AD7233C448F0624508F0624488F0624D0
:1029C000B88E0624048F0624C88E0624E48F0624BD
:1029D000FFF7ACFDF7EE007A5A4EDFF8A09187EED4
:1029E000A88A354606F1F007A9F11B0A09F1060B82
:1029F0004FF000084FF07C539FED530A28466B6060
:102A00000124C5ED038A85ED048A85ED020AC5F827
:102A100014800EF079F8002385ED060A85F825402C
:102A200085F8244047F8048BC7F81480C7F82C8039
:102A3000C7F8448005F8283B4AF8043F09F8013FED
:102A4000D945D5D1414DB7EE000A05F5805705F5BA
:102A5000405816E077EEC07A116067EEA67AC7EDAF
:102A6000007A07EE904A9FED3A7A9FED3A0A0437D2
:102A7000F8EEE77A013467EE877A87EE800A0EF087
:102A800093FE631E002143F6FC72B3F5007F45F808
:102A9000041BF7EE007A2A44F6EE006A48F8041B9D
:102AA000D8D377EEC07AB4F5806F67EEA67AC7ED1B
:102AB000007AD6D144F6C0130022274D03249FED9F
:102AC000270A9FED278AF2540FE007EE903AF8EEBE
:102AD000E77A87EE279AB0EE490A0EF065FEB0EE6F
:102AE000408AB0EE490A0FF077FB012385ED008A9A
:102AF00085ED010A08351C449FED1A7A0A2C03FA69
:102B000004F3E2D144F6E413174AB0EE680A17481A
:102B1000F3589B0207EE903AF8EE677A88EEA77AB0
:102B200082ED007A0DF0F4FBB0EE680A10480DF06B
:102B3000EFFB104804F0BCF90F490E4804F0B4F95B
:102B4000FEE700BF603000240000C842B43100241A
:102B5000DB0FC94000C07F44D879002416EFC33E84
:102B60005E836C3FDB0F4940B4790024E40300240A
:102B7000C818002490900624096000083B7A0024BD
:102B8000DFED677AB4EEE70A30B5F1EE10FA2DED1D
:102B9000028BB0EE608A83B061D4DFED627AB4EE6E
:102BA000E70AF1EE10FA1DD4DFED5F7AB4EEE70A22
:102BB000F1EE10FA00F18D80DFED5C7AB4EEE70AF9
:102BC000F1EE10FA00F19F8018DD0423584C4FF00D
:102BD00076555848002142680093574B25600EF007
:102BE00043FD0BE004234FF07C5552480021504C2C
:102BF00042680093514B25600EF036FDDFED487AB8
:102C0000B4EEE78AF1EE10FA19D4DFED467AB4EEAD
:102C1000E78AF1EE10FA2FD4DFED437AB4EEE78ABB
:102C2000F1EE10FA45D4DFED417AB4EEE78AF1EE29
:102C300010FA5BD430DC03B0BDEC028B30BD4048F1
:102C400004234FF07E553F4C4268002100933E4BD9
:102C500025600EF009FD03B0BDEC028B30BD4FF0D6
:102C60007E550423324C0021324842680093364B93
:102C700025600EF0F9FCC1E7314804234FF07C5584
:102C8000304C4268002100932C4B25600EF0ECFC88
:102C900003B0BDEC028B30BD04232A4C4FF07655B7
:102CA0002748002142680093234B25600EF0DCFC8E
:102CB000C1E7234804234FF07A55224C4268002193
:102CC0000093224B25600EF0CFFC03B0BDEC028BCD
:102CD00030BD4FF07A550423154C00211548426849
:102CE00000931A4B25600EF0BFFC87E74FF0785534
:102CF0000423144C0021124842680093144B2560B1
:102D00000EF0B2FC97E74FF078550423084C0021F1
:102D10000848426800930E4B25600EF0A5FC6DE755
:102D2000CDCC4C3ECDCCCC3E9A99193FCDCC4C3F2E
:102D3000180200246C030024C4380108AC380108D0
:102D4000840300241C020024A4380108B4380108BC
:102D5000BC380108DFED787AB4EEE70A30B5F1EE61
:102D600010FA2DED028BB0EE608A83B06DD4DFEDEA
:102D7000737AB4EEE70AF1EE10FA21D4DFED707A3F
:102D8000B4EEE70AF1EE10FA00F1A780DFED6D7AFC
:102D9000B4EEE70AF1EE10FA00F1BE8020DD4FF04C
:102DA00081440221684B4FF07C556848426800918D
:102DB00000211C60664C674B25600EF055FC0FE04F
:102DC0004FF07C540221604B4FF07E555F484268C3
:102DD000009100211C605E4C5F4B25600EF044FCAE
:102DE000DFED557AB4EEE78AF1EE10FA19D4DFED93
:102DF000537AB4EEE78AF1EE10FA37D4DFED507A69
:102E0000B4EEE78AF1EE10FA55D4DFED4E7AB4EE67
:102E1000E78AF1EE10FA6FD43CDC03B0BDEC028B14
:102E200030BD4FF07A544D4802214D4B42684FF06F
:102E30007E55009100211C604A4C4B4B25600EF0E2
:102E400013FC03B0BDEC028B30BD4FF07A5402216D
:102E50003D4B4FF07E553D484268009100211C607B
:102E60003B4C414B25600EF0FFFBB9E74FF07C5423
:102E70003A4802213A4B42684FF07E5500910021BA
:102E80001C60384C344B25600EF0EEFB03B0BDECFB
:102E9000028B30BD4FF081440221314B4FF07C5505
:102EA0002E484268009100211C602E4C294B256061
:102EB0000EF0DAFBB1E74FF07E5428480221284B90
:102EC000284D4268009100211C60284B2C600EF0B8
:102ED000CBFB03B0BDEC028B30BD4FF07E54022122
:102EE000194B1B4D19484268009100211C602C6051
:102EF0001E4B0EF0B9FB73E74FF080450221184BD3
:102F00001648184C4268009100211D60184D194B5D
:102F100025600EF0A9FB80E74FF0804502210A4BA7
:102F20000A480B4C4268009100211D60104D114B66
:102F300025600EF099FB53E7CDCC4C3ECDCCCC3E7A
:102F40009A99193FCDCC4C3F280200249C030024C1
:102F500030020024A038010894380108B40300248A
:102F60002C0200243402002490380108983801080B
:102F70003333333F9C3801082DE9F04FC54A4FF0F9
:102F80000008DFF854E3C44EDEF800C0336812686E
:102F9000C24DC34C9A4205EB8C0A04EB8C092DED13
:102FA000048BC1F80080F0EE408AC0F8008085B044
:102FB0004FEA8C088AED000AC9ED000A07DA05EB32
:102FC000830A04EB83098AED000AC9ED000ADFF8E1
:102FD0000C930CF1010C99F80090B9F1000F7BD122
:102FE0009444DFF8FC92DFF8FCB2C144D844C9ED48
:102FF000008AC8ED000A9CFBF2FA02FB1ACCDFF84B
:10300000B8A2CEF800C09AF800C0BCF1000F40F0A2
:103010007B81DFF8D4820133DFF8B0E2D8F80040DA
:10302000DFF8C8C20134624503EB0405C8F800406C
:1030300095FBF4F304FB13538EFB03454FEAE37453
:10304000C4EB25540CFB1434346002DB954B914ADD
:103050001360954C9FED957AD4ED007AF4EEC77A23
:10306000F1EE10FA40F322824FF07E539FED909ADA
:10307000236090ED008AA8EE898AB6EE007A80ED92
:10308000008A94ED000A70EE007A27EE877AB5EE9A
:10309000407AB1EEC78AF1EE10FA00F1E083B0EEAB
:1030A000000A9FED847AD1ED006A30EE670A28EEBF
:1030B000268A20EE070AB5EE400AF1EEC08AF1EE4C
:1030C00010FA00F1C383A0EEA88A81ED008A05B052
:1030D000BDEC048BBDE8F08F774C944425789CFBC5
:1030E000F2F402FB14C4CEF80040002D91D0734DD1
:1030F000734C95ED007AD4ED006AB8EEC77ADFF82C
:10310000F0E1704DDEED007A67EE266A95ED006A1B
:103110006D4C77EE867AFDEEE66ACEED007AB8EE7B
:10312000E66AC4ED006AF4EEC67AF1EE10FA00F336
:103130003182F5EEC07AF1EE10FA00F1A282FDEED6
:10314000E76A624DDFF8A49116EE904AB8EEE66A9F
:1031500004F1010885FB047A4FEAE47E37EEC66A83
:1031600085FB085C4FEAE875CEEB2A5EC5EB2C5573
:10317000DFF86CC109FB1E4409FB15850CEB8404C8
:10318000AD00DFF870E1DFF87081DEED007ADFF886
:103190006C9127EE277AD8ED006AD9ED007ADFF836
:1031A00060E1BDEEC77A76EEA76AF8EEC77A8EEDDB
:1031B000007AC8ED006AF4EEE76AF1EE10FA40F327
:1031C0003E8276EEE76ADFED3A7ADFF838E14FF0DB
:1031D0007E5A4FF00A09F4EEE76ACEED0D7ACEF88A
:1031E0003CA0CEF80C90F1EE10FACEED0E7A00F184
:1031F0008C8207EE902AF8EEE77AF4EE676AF1EE39
:1032000010FA77FEA66AC8ED006A6544D4ED007A2C
:103210002F4CD5ED006A94ED007A76EEE76A2D4CDE
:10322000DFF8A8A0DFF8C490E6EE867ADFF8B4E015
:1032300067EE277AC0ED007A98ED007AD4ED006A47
:10324000FDEEC77A17EE904AF8EEE77A04F101082E
:103250008AFB045BE51737EE677A8AFB087A4FEA48
:10326000E87CC5EB2B55CCEB2A5C09FB154409FB2C
:103270001C850EEB84040EEB8505D4ED007A95EDEC
:10328000006A36EE676AE7EE067A66EEA77AC1ED67
:10329000007ABEE6240200249C8F062400580FC248
:1032A00000905FC1FFF12B007C8F062448E17A3F3C
:1032B000000000003333733F908F06242002002467
:1032C0001802002428020024B08F0624EFED345D9C
:1032D0003002002434020024A08F0624808F0624AC
:1032E00000C8AFC0000000C08C8F062400F22B0085
:1032F000848F06241C020024888F06242C020024BC
:10330000B48F06241888062407EE902ADFF870C4CC
:10331000DFF87084F8EEE75A9CED007ADFF868E495
:10332000D8ED007A25EE877ADEED006ADFF85CC41E
:1033300077EEA67ABDEEC77AC8ED007AF8EEC76AD6
:103340008CED007AF4EEE67AF1EE10FA00F3DB8011
:10335000F5EEC07AF1EE10FA00F18281BDEEE77A67
:10336000DFF818B4DFF8288417EE10CAB8EEC76A81
:103370000CF1010A8BFB0CE74FEAEC7E37EEC66AD4
:103380008BFB0A9B4FEAEA79CEEB275EC9EB2B5900
:1033900008FB1ECC08FB19A905EB8C0C4FEA890928
:1033A000DFF8F0E3DFF8F083DEED006ADFF8ECA38E
:1033B00065EEA66A98ED007ADAED007ADFF8E0E3D0
:1033C000FDEEE66A37EE277AF8EEE67ACEED006A91
:1033D00088ED007AB4EEE77AF1EE10FA40F31E8140
:1033E00037EE677ADFEDE17ADFF88CE34FF07E5B52
:1033F0004FF00A0AB4EEE77ACEED0E7ACEF834B08A
:10340000CEF80CA0F1EE10FACEED0F7A00F180812B
:10341000F4EE475AF1EE10FA48BFB0EE657A88ED47
:10342000007A4D44DCED007ADFF878C3D5ED006A10
:103430009CED007A76EEE76ACD4DDFF840A3DFF829
:103440005093E6EE867A67EE277AC0ED007A98ED23
:10345000007AD5ED006AFDEEC77A17EE905AF8EEC5
:10346000E77A05F101088AFB057B4FEAE57C37EE38
:10347000677A8AFB087A4FEAE87ECCEB2B5CCEEBCE
:103480002A5E09FB1C5509FB1E8C04EB850504EB29
:103490008C04D5ED007A94ED006A36EE676AE7EEAB
:1034A000067A66EEA77AC1ED007AB2E577EEA77AE2
:1034B000B6EE007A27EE877AB5EE407AB1EEC78A8B
:1034C000F1EE10FA00F1DA81B0EE007A9FEDA90A70
:1034D00077EE677A27EE800AB5EE400A90ED007A23
:1034E000B1EEC09AF1EE10FA28EE078A7FF5C3AD6F
:1034F000CDED030ACDE901010EF0DEFFDDED030A9B
:10350000DDE90101B7E577EEE67A9FED986ADFF82D
:1035100068C24FF07E594FF00A0EF4EEC67A8CED79
:10352000056ACCF81090CCF800E0F1EE10FA8CEDC2
:10353000066A00F19F80F4EEE75AF1EE10FA00F10E
:10354000EA80BDEEE77ADFF834E2DFF844A217EE56
:1035500010BAB8EEC76A8EFB0BC70BF101094FEA30
:10356000EB7C37EEC66A01978EFB097E4FEAE9775E
:103570000297019FCCEB275C029FC7EB2E5E0AFBF4
:103580001CBC0AFB1E9905EB8C0C4FEA8909C8ED9F
:10359000007A05E777EEC67A9FED746A764C4FF0B5
:1035A0007E5C0A25F4EEC67A84ED046AC4F818C07D
:1035B0002560F1EE10FA84ED056A00F19F8006EEB9
:1035C000902AB8EEE66AF4EEC67AF1EE10FA00F34D
:1035D000EF80FDEEE76A694DDFF8B4A116EE904A80
:1035E000B8EEE66A04F1010985FB047B4FEAE47852
:1035F00037EEC66A85FB095C4FEAE975C8EB2B58C4
:10360000C5EB2C55DFF8A0C10AFB18440AFB159541
:103610000CEB8404AD00CEED007AB2E5B5EEC07AD5
:10362000F1EE10FA7FF5FDAE37EE277AB5EEC07AEF
:10363000F1EE10FA7FF5ECAE9FED4C7AEFE6F5EE89
:10364000C06AF1EE10FA7FF5E0AD76EEA76AF5EE0E
:10365000C06AF1EE10FA7FF5CCADDFED446AD2E539
:1036600077EEA67AF5EEC07AF1EE10FA7FF563AF49
:103670009FED3E6AF0EE467A4FF00409DFF82CC168
:1036800085E777EE867AF5EEC07AF1EE10FA2CD463
:1036900006EE902AB8EEE66AF4EEC67AF1EE10FA7B
:1036A00000F3AD80FDEEE76A344DDFF8E4A016EEDE
:1036B000908AB8EEE66A08F1010985FB084B4FEAEB
:1036C000E87437EEC66A85FB095C4FEAE975C4EB1E
:1036D0002B54C5EB2C55DFF8D0C00AFB14840AFB31
:1036E00015950CEB8404AD0095E79FED206A042549
:1036F000DFF8B4C0F0EE467A64468CE7DFF8A8C085
:10370000F0EE467A0425644685E7F0EE676A7AE5CE
:10371000B0EE677A83E6FDEEE57ADFF860E0DFF889
:1037200070A017EE90BAF0EE657A8EFB0BC70BF126
:1037300001094FEAEB7C07EE10BA01978EFB097E78
:103740004FEAE977B8EEC76A0297019F35EEC66A7D
:10375000CCEB275C029FC7EB2E5E0AFB1CBC0AFB6E
:103760001E9905EB8C0C4FEA890910E70000000058
:10377000340200243333733F18880624EFED345DA0
:1037800018020024948F062428020024A88F0624FF
:1037900000F22B001C020024988F06242C02002427
:1037A000AC8F06243002002400C8AFC000580FC2FE
:1037B000FDEEC67A3D4DDFF8FCA017EE904AF0EE24
:1037C000467A04F1010985FB047B4FEAE47806EEB2
:1037D000904A85FB095C4FEAE975C8EB2B58F8EE77
:1037E000E66AC5EB2C55DFF8D0C00AFB18440AFB8B
:1037F000159536EE666A0CEB8404AD000BE7FDEE22
:10380000C67A2A4DDFF8ACA017EE908AF0EE467A21
:1038100008F1010985FB084B4FEAE87406EE908A2F
:1038200085FB095C4FEAE975C4EB2B54F8EEE66AB8
:10383000C5EB2C55DFF880C00AFB14840AFB1595F4
:1038400036EE666A0CEB8404AD00E4E6CDED020AC8
:1038500001910EF031FEDDED020A019933E4B0EE84
:10386000470ACDED020A01910EF026FE94ED000A02
:10387000DDED020A70EE007A019910E4B0EE470A1D
:10388000CDED030ACDE901010EF016FEF0EE007A4F
:10389000D4ED006A9FED067AE6EEE77ADDED030AE5
:1038A000DDE9010127EE870A16E600BFEFED345D82
:1038B0003333733F00F22B0000C8AFC0F3EE017A40
:1038C0001E4B1F491B6820EE270A1E4A980060EE17
:1038D000A70A01EB8303BDEEC00AD3ED006AFDEE3B
:1038E000E00A10EE103A10EE90CA02EB830302EBEE
:1038F0008C02D3ED007A92ED007AF4EE676A124BF7
:10390000F1EE10FA07D11844D0ED006AF4EE476AE0
:10391000F1EE10FA10D00D4A0D48126806EE902A0A
:1039200001EB820103EB8203F8EEE66AC1ED007A57
:1039300083ED007AC0ED006A704700BF808E0624D8
:10394000B88E0624CC390108C08E06240802002453
:103950001C8F0624000000002DE9F04FB54D00211A
:103960002DED088B284683B003F0CCFA28460121C0
:10397000B0EE40BA03F0C6FA28460221F0EE40AAA3
:1039800003F0C0FA28460321B0EE40AA03F0BAFAC9
:1039900028460421F0EE409A03F0B4FA28460521A7
:1039A000B0EE409A03F0AEFA28460621B0EE408A07
:1039B00003F0A8FA05F26620F0EE408A04F0C6F99A
:1039C000002840F02D8104469B4804F0BFF90028F0
:1039D00040F01E81994B9A491A680C60A24219D096
:1039E00098491C6001F130000B4600220C335A63E9
:1039F0009A63DA638342F8D1934EA6F11003002252
:103A00004FF0FF300C335A609A60DA6041F8040BD3
:103A10008E42F4D1072C00F2F380DFE814F04F025D
:103A20004D053F06E90272032D04CF04530144F60D
:103A300074100423854A86499FED867A33501160BD
:103A4000A6EB8600844F8549B146854A384401F18A
:103A5000F00B0194A2F16B0A804612F8017FD8B2F4
:103A6000804E4FF0010C00242FB1082828BF2046BB
:103A7000087033681470DAF800002831984203D0D7
:103A800082F800C048F822405945E6D19842019C8E
:103A90004E4603D044F6701249F8023078EE087AA8
:103AA000714B83ED007AF5EEC07AF1EE10FA01F178
:103AB0001E81B7EE007AF4EEC77AF1EE10FA07DC59
:103AC000F1EE066AA7EEA67AFDEEC77A17EE904AE7
:103AD000F6EE007A654BF0EE086AB0EE007A1C60F4
:103AE00038EE678AF7EE007A28EE268AF0EE676AEB
:103AF000E8EE076AF4EEE76AB0EE667AF1EE10FAE5
:103B000001F1FF80F1EE006AB4EEE67AF1EE10FA10
:103B100001F3DE81F5EE007A67EE277A44F65C1356
:103B2000534A5449B0EE4A0AF450C2ED007A81ED8E
:103B3000007AFCF777FE504B002250481A6003F0E1
:103B40002FFA002841F072814D4BB6EE006BB2EEB9
:103B5000040ADFED4C5A93ED007A4B4CB7EEC77A6E
:103B60004A4B4B4AA9EE250A9FED4A8A27EE067B6F
:103B700082ED008A27EE067BB7EEC77B84ED017AE3
:103B800083ED007A0EF062FC9FED437A4FF07C509B
:103B9000DFED427A30EE470A9FED417A414B29EE44
:103BA000079A414970EE277A404A0860B4EEC89AF5
:103BB00082ED00BAC4ED007AC3ED007AF1EE10FA9E
:103BC00001F19B80F7EE007AB4EE679AF1EE10FAFD
:103BD00037FE899AF2EE087A95F85532344A35491B
:103BE0007F2B69EEA79A81ED009AF8FE699AFDEEA7
:103BF000E99AC2ED009A00F0A0872F4B83ED009A5E
:103C00002E4803B0BDEC088BBDE8F04F03F0D0BAEE
:103C10002B4804F09BF8002800F0FE860334D9E618
:103C200005F26A2004F092F8002814BF012402244F
:103C3000CAE600BF90900624FE920624B88F0624A0
:103C4000A48F06241888062428880624CC7900240A
:103C5000CDCCCC3E1CC7713F5422FFFF6030002406
:103C60003B7A0024D47900244C900624B802002426
:103C700044900624BC0200245C900624F0920624A2
:103C8000388F06240000B442D47C00240890062417
:103C900010900624000000000800803FCDCC4C3E70
:103CA000CDCC8C3FFC8F0624480200243C90062497
:103CB00064900624F88F062458900624E092062487
:103CC00002930624F2EE087A95F85532A44A7F2B27
:103CD00069EEA79AF8FE699AFDEEE99AC2ED009A9C
:103CE00001F020809F4E44F6E41310229E4C96ED86
:103CF0004E0AF250204629EE000A9C4D0CF004FCBE
:103D000096ED4E0A20460CF0B9FBB0EE680A20464C
:103D10000CF0C2FB96ED4F0A954829EE000A0CF014
:103D2000F3FB96ED4F0A92480CF0A8FBB0EE680A40
:103D30008F480CF0B1FB02238E4A4FF0814144F6CC
:103D40005C10B0EE4A0A13608B4A335011600022B7
:103D50008A4B1A60FCF766FD2B78002B41F04D80F2
:103D6000874803F01DF948B386480027864A036850
:103D700014685A1C854992FBF4F304FB1323844A0C
:103D8000844C06EB83060360834802EB830201EB5D
:103D90008301D6F8386140F82370012082ED008A53
:103DA0004FF07E520E6020702870002B40F0568637
:103DB0007A4B0A21DA611A625A6259602AEEAA5ACB
:103DC000774BB7EE006BDFED773AB2EE040A93ED76
:103DD000007AB7EEC55A744CB7EEC77A734BAAEEA9
:103DE000A30A7348B6EE004B7249F7EE008A724A96
:103DF0009FED728A81ED00BAC0ED008A82ED008AE3
:103E00009FED4D2B9FED4E3BA5EE426B27EE037BC6
:103E100027EE067B27EE047BB7EEC77B84ED017AA5
:103E200083ED007A0EF012FB9FED655A4FF07C5146
:103E30009FED647A30EE450A634B2AEE877A634839
:103E4000634AB7EEC00AC0ED008AB4EEC87A1160CA
:103E50009FED3D4B9FED3E6BF1EE10FAA0EE046B33
:103E6000B7EEC66B84ED006A83ED006A00F14F8700
:103E7000B4EEE87AF1EE10FA00F3F885B7EEC77AFF
:103E8000DFED546AF5EE005A9FED536A9FED324B19
:103E900027EE047BB7EEC77B27EE257AC7EE267A9E
:103EA00077EE867AF4EEC87AF1EE10FA40F1E58505
:103EB000F0EE487A494BC3ED007AA1E6384BB6EEF6
:103EC000008AB2EE040A9FED377AD3ED007A364CC1
:103ED0002AEE27AA354B384AA9EE070A2AEE08AA85
:103EE000C2ED009A84ED01AA83ED00AA0EF0AEFAAD
:103EF000DFED337A78EE888ADFED396A30EE670AD3
:103F00009FED387ADFED387A3148A0EE267A2E4AD6
:103F100029EE279A354B3149C0ED008ABDEEC99A8A
:103F200081ED00BA84ED007A82ED007A83ED009A8B
:103F300066E600BFAFF30080333333333333E33F00
:103F40009A9999999999D93F894160E5D022D33FAF
:103F5000000000606666E63F666666666666EE3F7F
:103F60006490062460300024E40300248C9006242E
:103F7000C8180024B8020024BC020024449006247F
:103F8000F092062478900624C0020024689006244B
:103F90007C90062438900624709006241888062405
:103FA000388F06240000B442D47C002408900624F4
:103FB00088900624849006241090062400000000B7
:103FC0000800803FCDCC8C3FFC8F06243C9006241B
:103FD000480200243333733F3333333FF88F0624D2
:103FE000CDCCCC3ECDCC4C3F0000C8420490062442
:103FF0007748B2EE04AA03F01DF879EEA99A754C41
:104000007548764B84ED000A80ED030AC3ED009AF3
:104010000CF04AF923687248DFED729AC3600CF025
:1040200043F9714803F006F822687048FDEEC07A43
:10403000B7EECBBA6E4C0260B0EE4A0A6D486E49DC
:10404000C0ED007AA9EE290A62609FED5F7B2BEE3E
:1040500007BBB7EECBBB81ED00BA0EF0F7F99FEDD1
:10406000677AF0EE086A9FED666A28EE088A30EEFD
:10407000477ADFED647AB0EE4A0A634B28EE268A6F
:10408000624AE7EE067AA8EEA90A82ED008AC4ED3C
:10409000007AC3ED007A0EF0D9F9DFED5D7AB7EE64
:1040A000007ADFED5C5A30EE670ADFED5B7A9FED58
:1040B0005B6ADFED5B6AE0EE257A77EE677A67EEA2
:1040C000867AF4EEE67AF1EE10FA00F124869FED9E
:1040D000557AF4EE477AF1EE10FA77FE277A9FEDE3
:1040E000527A4FF07C54514D002229EE079A5048E5
:1040F0005049514B85ED009A0460C1ED007A1A6079
:104100007EE54E4802F04CFF50B34D4B00254D4923
:104110004FF07E5218680A241D60012581FB003192
:10412000C317494EC3EB2151484B06FB11011B68D5
:1041300047485B1A474E016007EE903A4648474BA6
:10414000F8EEE77A4649DA611A62C6ED007AC0ED08
:10415000007A5A629A62DA621A630D70C3E9014406
:10416000F6EE007A3F4BF4EEE79AF1EE10FA40F3E8
:104170006B841A786AB936490122364D0C68364884
:1041800039492D680C600068384C39492560086051
:104190001A70F0EE490AB0EE4B0AFEF7F1FCF0EEB1
:1041A000480AB0EE6A0AFEF7D5FDB7EEE87A314B61
:1041B0009FED056B27EE067BB7EEC77B83ED007A9C
:1041C0001EE500BFAFF30080295C8FC2F528F03FE9
:1041D000A42E00244C8F062448890624548F0624DC
:1041E000648906240000B442702E0024089006243E
:1041F000D47C00245C8F0624588F06240800803F5E
:104200009A99993E3333333FFC8F062410020024E1
:1042100069FF7F3FCDCCCC3E9A99193FCDCC4C3D28
:1042200017B7D13858FF7F3FCDCC4C3FF88F0624CD
:10423000480200241402002410900624F092062460
:104240008C8F0624EFED345D00F22B00A08F062446
:1042500024020024948F0624988F062418880624AC
:10426000908F0624808F062420020024848F062449
:10427000888F06247C8F0624734802F091FE98B143
:10428000724B00244FF07C524FF07E501D680A2183
:104290001C606F4B6F4CD861256098621A625A623D
:1042A000DA621A63C3E901116B4E3368002B40F0E8
:1042B0002B836A4A6A4914686A486B4A01EB84078F
:1042C000006802EB840C3F6801EB8001674DDCF86D
:1042D00000E002EB8002DFF87CC10F60DCF8001028
:1042E00055F824700029C2F800E045F8207040DD40
:1042F000C1F3D6125E4FCCF8003007EE900AA7FB50
:1043000002235C4A5C4FF8EEE77A9B08DFF89CC119
:1043100002FB03F23B68CCED007AC2EB810245F868
:104320002020EBB9554A5649126851F824105548D7
:10433000511ADFF87CC150F8240048BF0331121A2B
:1043400051484FEAA10148BF0332CCF800100021C8
:104350009210DFF860C10160CCF800204B4A116078
:1043600001335A4203F0030302F0030258BF5342E1
:104370003B60F6EE007AF4EEE79AF1EE10FA40F3C5
:10438000B982434A1378002B40F0B7823B4901279A
:1043900055F824300C683748E31A3E491770034437
:1043A0003D4D81FB0321DA172C60C2EB21523B4CBF
:1043B0003B4900FB123222600A609EE2B7EE000A1F
:1043C000F5EE007A30EE6A0AB4EEE70AF1EE10FA82
:1043D00040F12583334E44F6E4130222F250324A70
:1043E000F2EE027AB2EE026B44F6741392ED007AAA
:1043F0000022A8EEA77AF2509FED115BB7EEC77AC4
:1044000027EE057B27EE067BFDEEC77B17EE903A85
:10441000082B00F27D8501A252F823F0E94A00083A
:10442000CF4A0008B94A0008A34A00080F4B000809
:10443000F94A0008254B00088B4A00082F3A00086B
:104440009A9999999999B93FF09206240C8F06246C
:1044500018880624108F0624848E0624808E062455
:10446000B88E062408020024C08E0624048F062479
:10447000779A2E0000F22B00B48E0624148F0624A7
:10448000D88E0624E08E0624B08E0624F48E0624F0
:104490009C8E0624EFED345DA08E0624A88E0624A3
:1044A000A48E0624603000244C9006241C8F062421
:1044B000AC8E0624F08E062495F855327F2B18D149
:1044C000DF48E0490268E04C013281FB0231D3173A
:1044D000C3EBA10303EB8303A2EB430303FB03F250
:1044E000036003FB02F307EE903AF8EEE77AC4EDBF
:1044F000007AB0EE6A0AD54EFCF70EFAF2EE087AB0
:104500009FEDD37AF5EE006AD24BF2EE04AAE9EE03
:10451000877ADFEDD1BA38EE088AD04AB0EE6A0A5F
:10452000CF4DF6EE009ACF4C82ED008AA8EEAB0A92
:10453000B0EE677AD3ED007ACB4B2AEE27AAFDEED8
:10454000C77A2AEE26AAF8EEE77A3AEE0A7A85EDDD
:1045500000AAC3ED007A2AEE29AA86ED017A0DF0B1
:1045600075FFDFEDC27A9FEDC27A30EE670ADFEDAC
:10457000C17AC14BC14AE0EE077AC148C2ED008A58
:1045800080ED03AAC6ED007AC3ED007A0BF08CFE35
:10459000BC4880ED03AA0BF087FE95ED000ABA48EF
:1045A0000BF0BAFD95ED000AB8480BF0B5FD9FED94
:1045B000B80AB5480BF014FE9FEDB50AB3480BF0EE
:1045C0000FFED4ED006A9FEDB37AF0EE007A39EE7B
:1045D000669AB14BB6EE005BE8EEA79AE9EE076A81
:1045E000C3ED009AB7EEE67AC4ED006A37EE457B7C
:1045F00037EE077BB7EEC77BB5EEC07AF1EE10FA67
:1046000000F17883F7EE007AB4EEE77AF1EE10FA73
:1046100000F33082B0EE6A0AA7EE2B0A0DF016FF07
:10462000B7EE007A9FED916AF0EE007AD4ED006A61
:10463000B7EE088A30EE460AB0EE476A20EE088AE6
:10464000A6EEE76AB5EEC06AF1EE10FA00F16783F4
:10465000B4EEC76AF1EE10FA00F33684B2EE040A43
:104660009FED7D7AA6EE070A0DF0F0FEDFED7F7A72
:10467000B7EECBBA894B30EE670A894AF7EE086A83
:104680009FED6B7BA0EE668A2BEE07BB82ED008A66
:10469000B7EECBBB83ED00BAFFF7B2BA6D4C8148E1
:1046A00002F0C8FC94ED007A7F4DC0EE077A7F4897
:1046B000C5ED007A02F0BEFCD4ED007AF7EE002AD8
:1046C0007B4B28EE088AC0EE273A95ED006AD3EDC1
:1046D000007A784C9FED784AD4ED006A36EE676A2E
:1046E0009FED763A6AEEAAAADFED754AB0EE622A2D
:1046F000744AF0EE620A9FED741AE6EE047A9FEDBA
:10470000735AA8EE032ADFED725AEAEE830A9FED90
:10471000716AB7EECBBA7048704932EECA0A704D72
:10472000B0EE677ADFED6F7A33EEE63AC2ED003A2B
:10473000B0EE428A002227EE072A83ED007AE3EEEC
:10474000046A694BB0EE644A85ED00AAE2EE014AC4
:10475000C3ED169A82EEA03A5A649A641A65C4EDC3
:10476000006A624C66EEA63ADA65F0EE650AC4EDC0
:10477000009A72EEE99A9A66A3EE814ADA66B0EE82
:10478000451A5B4AA2EE245AC3ED189AB7EEC99AAD
:1047900083ED13AAC2EE881AC2ED008A83ED150AD2
:1047A00081ED013AA3EE841AE2EE055A9FED224B09
:1047B000E3EE810A2BEE04BB29EE049BC0ED011A47
:1047C000F0EE464AB7EECB5BA2EE256AE3EEA04AD6
:1047D00083ED105AB0EE675AF7EEC95BE2EE067A47
:1047E000C3ED195AA3EEA45AB0EE626A67EE277AB7
:1047F00066EE856AB0EE627AC1ED007AA6EEA16A35
:10480000C0ED006AA7EE837AA6EEA66AA7EEA77AA5
:10481000F0EE466AF0EE477A82EEA66A82EEA77A5A
:1048200080ED026A81ED027AFFF7EAB9AFF300800A
:10483000295C8FC2F528F03F9A9999999999E93F97
:10484000D48F062467666666D08F0624D47C002445
:1048500000007042388F06240000B44210900624F5
:1048600044020024380200243C0200240800803F57
:104870003333B33FCDCC4C3FFC8F0624F88F062456
:10488000488906246489062488880624D488062456
:104890006F12833A6F12033C48020024C48F06242F
:1048A000C88F0624047C0024308F0624387C002422
:1048B000208F06240C020024CDCCCC3D00004442C5
:1048C00090ECAC42348F062423FE2E458F342143D6
:1048D00066482342A85D25413489062420890624A0
:1048E000248F0624DB0F494018880624288F0624CD
:1048F0002C8F0624BC4B00221A70F0EE490AB0EE51
:104900004B0AFEF7DBFF3368B84A0133F2EE04AA24
:104910009FEDB7BA1168B7EE009ADFEDB69AB0EE28
:104920006A0AB54CB54D93FBF1F201FB1233AAEEC6
:104930000B0A33600DF08AFD30EE697ADFEDB07A54
:10494000B7EEC85AAF4BB0EE6A0A27EE277A9FED52
:10495000A26BB7EEC77AA8EE8B0AA5EE067BB7EE80
:10496000C77B83ED007A0DF071FD30EE490AA64B4E
:10497000A6489FED9B6BB7EEC07A27EE067BB7EE9D
:10498000C77B83ED007A02F055FBD4ED007A9FEDF2
:10499000A07A70EE676A9F489F4BE6EE877A83EDB8
:1049A000000AC4ED007AC0ED037A0BF07DFC9B4851
:1049B00023689B4CC3600BF077FC9A4AB5EE007AF3
:1049C000B0EE6A0A984BD2ED007AE7EE887AA8EE4C
:1049D0000B0A67EE877AC5ED017AC3ED007A0DF018
:1049E00035FD30EE690ADFED916ADFED917AB6EEC2
:1049F000087A904B0021E0EE267A8F4828EE078A4D
:104A00008E4A84ED009A116080ED008AC5ED007A2F
:104A1000C3ED007AFFF7F4B80634FEF7DBBFF6EE1D
:104A2000007AB4EEE70AF1EE10FA11D4F6EE087A45
:104A3000834EB4EEE70AF1EE10FA40F1618244F6DB
:104A4000E4130822F250CAE400221A70FFF7A1BB57
:104A50007B4E44F6E4130422F250C0E4794B0A2161
:104A60009A62DA621A639960FFF7A8B9DFED767A85
:104A7000FFF720BA9FED750AD0E5F4EE667AF1EE05
:104A800010FA76FEA77AFFF715BA44F674130621DA
:104A90006F4AF15023466F499FED6F7A1160FEF720
:104AA000CFBF44F674100523694A6C499FED6C7AB8
:104AB00033501160FEF7C4BF44F674100123644AFA
:104AC00066499FED687A33501160FEF7B9BF604BBD
:104AD00008224FF07E5044F674119FED637A1860FF
:104AE00013467250FEF7ACBF4FF07E51584A9FED0F
:104AF0005F7A1160FEF7A4BF44F674100223544A93
:104B00005B499FED5C7A33501160FEF799BF44F624
:104B1000741107234E4AB6EE007A7350564911605D
:104B2000FEF78EBF44F674100323494A49499FEDAE
:104B3000537A33501160FEF783BF514851490268E0
:104B4000013281FB0231D317C3EB610303EBC303D3
:104B5000D31A002B036040F3BF813A4A00214FF083
:104B60007E50023B116450649164062B00F2D581A3
:104B7000DFE803F0B3A89E24190E04003C4B002488
:104B80004149424853669366D4660860FFF735B8DA
:104B90000025374C3E483C4B3E4955669466D066EE
:104BA0001960FFF72AB800253B4C3C48364B3C497E
:104BB00055669466D0661960FFF71FB80025394C1A
:104BC0003948314B394955669466D0661960FFF70C
:104BD00014B800BFAFF300809A9999999999B93F99
:104BE000295C8FC2F528F03F9C8E06240402002425
:104BF0000000B4420800803F888E0624D47C002444
:104C00006666663F948E06248C8E0624487A0024BD
:104C1000CDCCCC3D48890624008F06246489062427
:104C200048020024388F062408900624CDCC4C3E40
:104C30006666263FFC8F0624F88F06241090062413
:104C400060300024188806243333733F0000C842C4
:104C5000CC7900246666E63E5555553F6666663F4C
:104C6000721CC73EE4388E3EABAA2A3E398E633DA5
:104C7000CDCCCC3EC7711C3F3333B33E8EE3383FBF
:104C800050900624398EE3386090062458020024A0
:104C9000CDCCCC3D700200243333333FCDCC4C3EE1
:104CA0007C0200249A99193F9A99993E880200241F
:104CB000A54B0021A548A64C516604609366D366B7
:104CC000FEF79BBFA14C0020A24DA349A34B25603A
:104CD00050669166D366FEF790BF00239B48A04CB8
:104CE000A049046053669366D166FEF786BF01242F
:104CF000FEF7EEBEB0EE6A0A90E4B0EE489AFEF718
:104D000069BFB0EE677AF5EE007AFEF707BFDFED18
:104D1000967AFFF7CFB8F0EE667AFFF7E0B9B2EE19
:104D2000040AA1E4914892490268013281FB0231F0
:104D3000D317C3EB610303EBC303D31A002B036048
:104D400040F3D4808B4A00214FF07E50023B116427
:104D500050649164062B00F2EB80DFE803F04439E5
:104D60002F24190E0400784B00247849824853669A
:104D70009366D4660860FEF7B5BF0025724C7F4885
:104D8000724B7F4955669466D0661960FEF7AABFDC
:104D900000257C4C7C486D4B7C4955669466D066FA
:104DA0001960FEF79FBF00256C4C6B48674B784934
:104DB00055669466D0661960FEF794BF624B002179
:104DC0006248634C516604609366D366FEF78ABFFF
:104DD0005E4C00205F4D6049604B256050669166D7
:104DE000D366FEF77FBF002358485D4C5D490460E1
:104DF00053669366D166FEF775BFDFF8BC8141F25A
:104E0000E447644BD8F8000003EB800307FB004045
:104E100093ED000A0BF08AFBD8F8000007FB004076
:104E20000BF00CFB00232B70FEF79ABF5A4B0122AC
:104E30005A4E42F210741A700DF08AFD86FB003251
:104E4000C3179FED578AC3EB2233DFF87081554FAC
:104E500004FB130307EE903AF8EEE77A87EE887AC0
:104E600088ED007A0DF074FD86FB0032C317C3EBAA
:104E7000223304FB130307EE903AF8EEE77A87EE4D
:104E8000887A87ED007A0DF063FD86FB0036C31744
:104E9000384AC3EB26333968D8F800C004FB130343
:104EA000414FC2F84CC007EE903A1165C2F858C0A5
:104EB000F8EEE77AD165116687EE887A87ED007A99
:104EC00082ED157AFEF740BE9FED380AFFF7CCBBA6
:104ED000B0EE667AFEF722BE264B00221A645A64B0
:104EE0009A645A669A66DA66FEF787BE214B0022FC
:104EF0001A645A649A645A669A66DA66FEF7F2BED3
:104F00007FF76DAA44F6E4131022F250FFF767BA58
:104F100000239FED277AFEF793BD00234FF07E54C8
:104F20000A492448D466086053669366FEF765BE56
:104F300000234FF07E5405491E48D466086053662E
:104F40009366FEF7CFBE00BFCDCCCC3E609006246A
:104F500094020024A00200249A99993E9A99193F3C
:104F6000AC020024CDCC4C3F3333333F5090062469
:104F7000398EE3381888062458020024CDCCCC3D65
:104F8000700200243333333FCDCC4C3E7C020024EE
:104F9000880200247C90062438900624AD8BDB68C0
:104FA00000401C4640900624349006240000C8426D
:104FB0000000000064020024789006245490062427
:104FC00010B50023064C0749074A084823600B60C8
:104FD000136001F071FFBDE81040FEF7BDBC00BFDB
:104FE000F88F0624C88F0624E48F062490900624A8
:104FF0002DE9F04FE64CE74B2268DFEDE77A01320E
:105000002DED088B8DB0C1ED007AB0EE409AC0ED69
:10501000007AF0EE608ACDE9020183FB0231D317FA
:10502000C3EBE10303EB4303A2EB03132360002B69
:1050300000F09084D94BDA4CD3ED003AD94EB6EE5D
:10504000004BB7EE000BD84DD6ED006AB7EE003A34
:1050500095ED006AB6EE008AB7EEE65ADFF8A08357
:10506000B7EEC62ADFF89CB373EEE69AD8ED007A65
:1050700035EE045B9BED004A73EEC63A27EE844A98
:1050800080EE05BB73EE677AB7EEC44A9FEDB65B60
:105090009FEDB71B9FEDB8AB32EE052BF4EEC87A4F
:1050A00080EE025BF1EE10FA9FEDB52B2BEE011BAB
:1050B000B7EEC11BE1EE296A25EE0A5BC6ED006A78
:1050C000B7EEE61AF0EE466AA1EE420BB7EEC55B0C
:1050D000E5EE236A24EE000BC5ED006A00F133848F
:1050E000F4EEC37AF1EE10FAD4BF27EE897AB0EE6F
:1050F000497AB7EEC77AAD4837EE000BB7EEC00B72
:105100000BF016FDB7EE005BD5ED007AF7EE002A46
:1051100096ED003AB7EEC00AB7EEE76AA44BB0EEE0
:1051200045ABD8ED007AB7EEC33A93ED004AB6EE40
:10513000007A27EE844A72EEE77A9FED931BF4EE35
:10514000C77AB7EEC44AA6EE41ABF1EE10FA9FED76
:105150008C1BA3EE415B20EE0A6B24EE055BB7EEE1
:10516000C68B00F1F483F4EEE27AF1EE10FAD4BFCC
:1051700027EEA87AB0EE687AB7EEC77A8D488E4EE1
:10518000DFF8849237EE057BB7EEC70B0BF0D0FC4F
:1051900095ED006AB7EE007B884BB7EEC66A88498A
:1051A000B7EEC00A1B68874A01EB8305367802EB2D
:1051B00083004FEA830C049685ED008A9FED725BB5
:1051C000A6EE457B20EE070BB7EEC00B80ED000A84
:1051D000002E40F03081DFF834E2D9F800007A4E3A
:1051E0007A4D5EF8200066446544002886ED008A0A
:1051F00085ED000A40F3CE8107EE903A9EED007AED
:105200007348F8EEE77A734DB8EEC77A90ED005A1E
:1052100095ED006AF0EE674ADEED016AB0EE674A8E
:10522000D0ED015AF8EEE66ADFF8E4E1E7EE454A30
:10523000694AA7EE464A694FB0EE677A0192A6EE38
:10524000E57AB0EE645AD5ED014A654DE6EEE47AB2
:10525000F0EE475A9FED637A35EE075A74EE076A0F
:1052600035EE876A77EE877ABDEEC57AFDEEE77A8E
:1052700017EE10CABDEEC67A8EFB0C2A4FEAEC7808
:1052800017EE100ABDEEE67AC8EB2A58CDED067A85
:105290008EFB00624FEAE07A07FB18C84F4FCAEB5B
:1052A000225C17EE102A8DED057A8EFB022617EE92
:1052B000902A07FB1C0C4C4F8EFB02AE17EE100A17
:1052C00001EB880AC7F80080C017444F4FEAE27824
:1052D000DAF800A0404AC0EB2650C8EB2E5E394EEB
:1052E000C2F800A017EE102A01EB8C0107FB10207A
:1052F0003D4F17EE902AD1F80080C7F804C006EBA6
:10530000800C364FDCF8001007FB1E2E296006EBE0
:105310008E023649304E1268C6F8048008606A6012
:10532000C1F804E03249334A91ED000AD2ED007A27
:10533000B4EEE70AF1EE10FA40F338832E4AF7EEA6
:10534000007A9FED2E7AD2ED006AF8EEE66A66EEFC
:10535000876A87EEA67A30EE470AB5EEC00AF1EE0C
:1053600010FA57E0AFF30080666666666666E63F51
:10537000000000E04D62503F000000E04D62403F01
:10538000333333333333D33F9A9999999999D93F2A
:10539000F88E0624ABAAAA2A00000000FC8E062480
:1053A000D82E0024988E0624908E0624CC03002448
:1053B000EC8E0624D80300249C8E0624148F062429
:1053C00000580FC200905FC100C8AFC0000000C00D
:1053D000B88E0624C08E0624C88E062400F22B0048
:1053E000D08E062400C82F4AD88E0624E08E0624CC
:1053F000188F06241C8F06240402002400003C425F
:10540000948E0624E88E062408020024048F0624C5
:10541000EFED345D00F1E082B4EEE70AF1EE10FA50
:1054200000F3F78230EE007AF6EE007A67EE277A24
:1054300081ED000ABAE0D849D9F8002051F82220BD
:10544000002A40F3A780D54F91ED007A3A68D448FE
:10545000B8EEC77A07EE902AD1ED016AD149013240
:10546000F8EEE77A90ED005A91ED006AF8EEE66A00
:10547000D0ED015AD017F0EE674ADFF86083B0EE46
:10548000674AE7EE454AA7EE464AB0EE677AA6EECF
:10549000E57AB0EE645AD1ED014AC349E6EEE47A0A
:1054A00081FB0265C14EF0EE475A9FEDC17AC0EB19
:1054B0002555019635EE075ABE4874EE076A08FB7B
:1054C000152235EE876A77EE877A3A60BDEEC57AA7
:1054D0000692FDEEE77A17EE10CABDEEC67A81FBA2
:1054E0000C624FEAEC7E17EE105ABDEEE67ACEEB78
:1054F000225ECDED057A81FB057617EE10AA17EE38
:10550000107A08FB1ECE81FB0A2A17EE902AC0F8FB
:1055100000E081FB0212A8490792EA1701EB8E0C0A
:10552000C2EB265217EE906ADCF800C008FB12525C
:10553000FD174260C5EB2A5A01EB82020799F51765
:1055400008FB1A7A9948C5EB21519C4FD2ED007A9D
:1055500008FB11619A4AC0F800C007EB8A0C994811
:10556000DCF800E007EB810C0068974DDCF800C028
:105570008E4EC5F800E0C6ED017AC5F804C0C2E958
:1055800000A1069A82427FF4CDAE904A8349126808
:105590000A60C7E68E49F6EE007A844A91ED000A69
:1055A000894D30EE007A019267EE277A89480268C9
:1055B000013A002A026040F38B8187480268013A71
:1055C000002A026040F349810133774ADFF83CC288
:1055D000F5EE407A82FB0302D817B1EEE78AC0EB02
:1055E00022507E4A02FB1033DCF800207C48F1EEAA
:1055F00010FA02F101020360CCF8002000F12C82C5
:10560000F0EE007A9FED770A019B77EEC77AD3ED33
:10561000016A28EE268A27EE800AB5EE400AF1EEEE
:10562000C09AF1EE10FA00F1F981019BB6EE000A82
:10563000D3ED007A27EE000AA7EEA98AB5EE400A5C
:10564000F1EE10FAF0EE487AB1EEC08ACDED087AAC
:1056500000F1ED81DFED637AD5ED016AB0EE000A6D
:1056600028EE268A30EE470A20EE270AB5EE400AD9
:10567000F1EEC09AF1EE10FA00F1E281D5ED007A78
:105680005948A7EEA98A9DED080A584D8DED098A63
:105690000BF04EFAF0EE407A55489DED090ACDED3B
:1056A000087A0BF045FA08A952488DED090A0AF06C
:1056B000EBFD09A950488DED080A0AF0E5FDF0EE72
:1056C000400A0BA99DED080A0AA8CDED090AFBF7CF
:1056D00029FADFED4A7AB6EE000A9DED0B7A9DEDD0
:1056E0000A8A27EE277AD5ED006A28EE278A9FEDF1
:1056F000446AD4F8C03067EE077A4249F4EEC66ACD
:1057000004EB8302013381ED007AE8EE087A8BED39
:10571000008AF1EE10FAC4F8C03067EE807AC2ED6C
:10572000007A77DD4FF07E53DFED379A2B60A9EEDC
:10573000298A029BB6EE007A83ED008A95ED000A75
:1057400070EE007A27EE877AB5EE407AB1EEC78A1E
:10575000F1EE10FA00F17781B0EE000A9FED2C7A9D
:10576000284B30EE670AD3ED006A28EE268A20EE39
:10577000070AB5EE400AB1EEC09AF1EE10FA00F158
:105780008581A8EE898A039B83ED008A0DB0BDEC6C
:10579000088BBDE8F08F00BF048F0624A48E06247A
:1057A000B88E0624C08E0624EFED345DC88E062424
:1057B00000C82F4AD88E062400C8AFC0000000C021
:1057C000E08E0624A08E0624D08E0624A88E062401
:1057D000188F0624AC8E0624F08E062400F22B00CF
:1057E000148F06243333733FB88906248C8E062425
:1057F000C489062448890624648906249A99593F55
:10580000A4707D3FEC8E0624000000000C8F06245F
:105810003333333F76EEA66A26EE800AB5EE400AB1
:10582000F1EEC09AF1EE10FA00F12181B0EE000A1B
:105830005FED097A70EE666A66EEA76AF5EE406A79
:1058400028EE298AF1EEE69AF1EE10FA7FF56FAFB5
:10585000B0EE660A0CF030FE69E7DFF860E2DEF8D1
:105860000020C2B9049E4FF00308DFF854C24FF085
:10587000000986F0010706EE106ACCF8389006EEB3
:10588000907AB8EE466ACCF80C80F8EEE66A8CEDB9
:105890000F6ACCED0D6A0132DFF81882D2F1000CEC
:1058A000D8F80090DFF81C8202F003020CF0030C21
:1058B00058BFCCF1000258F829C0B3EB0C0CCEF85D
:1058C000002048BF0CF1030C4FEAAC0202607BE6FB
:1058D000DFF8F4E1DEF80020C2B9049F4FF00309BD
:1058E000DFF8DC8187F0010C06EE107AC8F8009032
:1058F00006EE90CAB8EE466A4FF0000CF8EEE66A83
:1059000088ED066AC8F814C0C8ED046A0132DFF8F1
:10591000A481D2F1000CD8F80090DFF8B08102F039
:1059200003020CF0030C58BFCCF1000258F829C058
:10593000B3EB0C0CCEF8002048BF0CF1030C4FEA7F
:10594000AC02026039E629EE087AFFF7D2BB28EEF6
:10595000877A11E4524CD4F8C020002A08DD23468F
:1059600004EB8201B3EC017A994277EE877AF9D1A0
:1059700007EE102AB8EEC77A87EE870AB5EE400A1E
:10598000F1EEC03AF1EE10FA00F18380444B03F1DE
:10599000C001002243F8042B9942FAD10022414B66
:1059A000C4F8C020C3ED003AFFF748BB1BD53E4A00
:1059B000F7EE007A9FED3D7AD2ED006AF8EEE66AE6
:1059C00066EE876A87EEA67A37EE000AB5EEC00A61
:1059D000F1EE10FA7FF520ADDFED357AB0EE677AA3
:1059E000B0EE670A24E5FDEEE77A324830EE007A41
:1059F00017EE90CAF6EE007A1CF10102C0F800C062
:105A000067EE277A02F0010248BF5242C9F800202F
:105A1000CCE5B0EE007AB0EE670A09E504910CF02F
:105A20004BFD049991ED000A30EE007AFDE50191FD
:105A30000CF042FD019991ED000A30EE007A09E682
:105A40000CF03AFD1AE6B0EE470A0CF035FD95ED84
:105A5000000A70EE007A7FE6B0EE670A04910CF05F
:105A60002BFD049991ED000A30EE007AC8E50CF0A8
:105A700023FDF0EE007A95ED007ADFED0F6AE7EE98
:105A8000677A9BED008A67EEA66AD7E60CF014FDF4
:105A900077E6CDED013A0CF00FFDDDED013A75E74B
:105AA000D82E0024FC8E06240402002400003C4270
:105AB00000000000808E06243333333FF48E06242A
:105AC00018880624E08E0624B08E0624D88E06247C
:105AD0002DE9F84F8A4C07460E46DFF84CA2A4F198
